:020000040000FA
:100000000A128A11FC2F00308A000408840A820731
:1000100000344434653420345334653467347534E3
:10002000723461346E343F34613400344D344F34B3
:10003000563445344D3445344E3454344F34003402
:1000400044346534743465347434613464346F34E6
:10005000003444346934673469347434653420348A
:100060000034413463346534733473346F34003492
:0C007000533465346E346834613400345D
:100DFC00F20072088312031387000810881008157C
:100E0C002130F1007630F000F00B0A2FF10B0A2F95
:100E1C0000008312031308110800F20072088312F9
:100E2C00031387000814881008152130F100763060
:100E3C00F000F00B1F2FF10B1F2F00008312031378
:100E4C000811080038300A128A11FE260A128A117B
:100E5C0006300A128A11FE260A128A110C300A1266
:100E6C008A11FE260A128A1101300A128A11FE26F4
:100E7C000A128A110800F600F501552F750876073D
:100E8C0084000A128A1103200A128A110A128A118A
:100E9C0013270A128A110130F4007408F50773083D
:100EAC007502031C5A2F5B2F442F08008316031363
:100EBC0006118611881783120313860183160313F8
:100ECC0087010810881008110A128A1128270A12A3
:100EDC008A1183120313061C742F752FD62F061537
:100EEC00861583300A128A11FE260A128A110830DE
:100EFC00F7007708F3000E300A128A1141270A1204
:100F0C008A11C3300A128A11FE260A128A110B307A
:100F1C00F7007708F30018300A128A1141270A12D9
:100F2C008A110D30F900AF30F800B630F700F70B2E
:100F3C009D2FF80B9D2FF90B9D2F0000831203138F
:100F4C000611861101300A128A11FE260A128A1124
:100F5C000830F7007708F30021300A128A11412774
:100F6C000A128A11C3300A128A11FE260A128A1139
:100F7C000B30F7007708F30030300A128A11412742
:100F8C000A128A117F30F900D430F8003130F700A2
:100F9C00F70BCE2FF80BCE2FF90BCE2FD52F6F2FA3
:100FAC000611861183300A128A11FE260A128A1142
:100FBC000830F7007708F30029300A128A1141270C
:100FCC000A128A11C3300A128A11FE260A128A11D9
:100FDC000B30F7007708F30001300A128A11412711
:100FEC000A128A116F2F0A128A11002883010A1221
:040FFC008A115C2FCB
:00000001FF
